{
    "contractName": "APIConsumer",
    "abi": [
        {
            "inputs": [],
            "stateMutability": "nonpayable",
            "type": "constructor"
        },
        {
            "anonymous": false,
            "inputs": [
                {
                    "indexed": true,
                    "internalType": "bytes32",
                    "name": "id",
                    "type": "bytes32"
                }
            ],
            "name": "ChainlinkCancelled",
            "type": "event"
        },
        {
            "anonymous": false,
            "inputs": [
                {
                    "indexed": true,
                    "internalType": "bytes32",
                    "name": "id",
                    "type": "bytes32"
                }
            ],
            "name": "ChainlinkFulfilled",
            "type": "event"
        },
        {
            "anonymous": false,
            "inputs": [
                {
                    "indexed": true,
                    "internalType": "bytes32",
                    "name": "id",
                    "type": "bytes32"
                }
            ],
            "name": "ChainlinkRequested",
            "type": "event"
        },
        {
            "anonymous": false,
            "inputs": [
                {
                    "indexed": true,
                    "internalType": "address",
                    "name": "from",
                    "type": "address"
                },
                {
                    "indexed": true,
                    "internalType": "address",
                    "name": "to",
                    "type": "address"
                }
            ],
            "name": "OwnershipTransferRequested",
            "type": "event"
        },
        {
            "anonymous": false,
            "inputs": [
                {
                    "indexed": true,
                    "internalType": "address",
                    "name": "from",
                    "type": "address"
                },
                {
                    "indexed": true,
                    "internalType": "address",
                    "name": "to",
                    "type": "address"
                }
            ],
            "name": "OwnershipTransferred",
            "type": "event"
        },
        {
            "anonymous": false,
            "inputs": [
                {
                    "indexed": true,
                    "internalType": "bytes32",
                    "name": "requestId",
                    "type": "bytes32"
                },
                {
                    "indexed": false,
                    "internalType": "uint256",
                    "name": "volume",
                    "type": "uint256"
                }
            ],
            "name": "RequestVolume",
            "type": "event"
        },
        {
            "inputs": [],
            "name": "acceptOwnership",
            "outputs": [],
            "stateMutability": "nonpayable",
            "type": "function"
        },
        {
            "inputs": [
                {
                    "internalType": "bytes32",
                    "name": "_requestId",
                    "type": "bytes32"
                },
                {
                    "internalType": "uint256",
                    "name": "_volume",
                    "type": "uint256"
                }
            ],
            "name": "fulfill",
            "outputs": [],
            "stateMutability": "nonpayable",
            "type": "function"
        },
        {
            "inputs": [],
            "name": "owner",
            "outputs": [
                {
                    "internalType": "address",
                    "name": "",
                    "type": "address"
                }
            ],
            "stateMutability": "view",
            "type": "function"
        },
        {
            "inputs": [],
            "name": "requestVolumeData",
            "outputs": [
                {
                    "internalType": "bytes32",
                    "name": "requestId",
                    "type": "bytes32"
                }
            ],
            "stateMutability": "nonpayable",
            "type": "function"
        },
        {
            "inputs": [
                {
                    "internalType": "address",
                    "name": "to",
                    "type": "address"
                }
            ],
            "name": "transferOwnership",
            "outputs": [],
            "stateMutability": "nonpayable",
            "type": "function"
        },
        {
            "inputs": [],
            "name": "volume",
            "outputs": [
                {
                    "internalType": "uint256",
                    "name": "",
                    "type": "uint256"
                }
            ],
            "stateMutability": "view",
            "type": "function"
        },
        {
            "inputs": [],
            "name": "withdrawLink",
            "outputs": [],
            "stateMutability": "nonpayable",
            "type": "function"
        }
    ],
    "bytecode": "608060405260016004553480156200001657600080fd5b5033806000816200006e5760405162461bcd60e51b815260206004820152601860248201527f43616e6e6f7420736574206f776e657220746f207a65726f000000000000000060448201526064015b60405180910390fd5b600680546001600160a01b0319166001600160a01b0384811691909117909155811615620000a157620000a1816200013f565b505050620000c97301be23585060835e02b77ef475b0cc51aa1e0709620001eb60201b60201c565b600380546001600160a01b03191673f3fbb7f3391f62c8fe53f89b41dfc8159ee9653f1790557f6361393833363663633733313439353762386330313263373266303561656562600955600a6200012a670de0b6b3a764000060016200020d565b6200013691906200023b565b600a556200025e565b336001600160a01b03821603620001995760405162461bcd60e51b815260206004820152601760248201527f43616e6e6f74207472616e7366657220746f2073656c66000000000000000000604482015260640162000065565b600780546001600160a01b0319166001600160a01b03838116918217909255600654604051919216907fed8889f560326eb138920d842192f0eb3dd22b4f139c87a2c57538e05bae127890600090a350565b600280546001600160a01b0319166001600160a01b0392909216919091179055565b60008160001904831182151516156200023657634e487b7160e01b600052601160045260246000fd5b500290565b6000826200025957634e487b7160e01b600052601260045260246000fd5b500490565b61113e806200026e6000396000f3fe608060405234801561001057600080fd5b506004361061007d5760003560e01c80638da5cb5b1161005b5780638da5cb5b146100ba5780638dc654a2146100d5578063c618a1e4146100dd578063f2fde38b146100e657600080fd5b80634357855e146100825780636021abac1461009757806379ba5097146100b2575b600080fd5b610095610090366004610dc9565b6100f9565b005b61009f6101fb565b6040519081526020015b60405180910390f35b6100956102ff565b6006546040516001600160a01b0390911681526020016100a9565b6100956103ad565b61009f60085481565b6100956100f4366004610deb565b6104f1565b60008281526005602052604090205482906001600160a01b031633146101775760405162461bcd60e51b815260206004820152602860248201527f536f75726365206d75737420626520746865206f7261636c65206f6620746865604482015267081c995c5d595cdd60c21b60648201526084015b60405180910390fd5b60008181526005602052604080822080546001600160a01b03191690555182917f7cc135e0cebb02c3480ae5d74d377283180a2601f8f644edf7987b009316c63a91a2827f673b38182859a514d734bdfcb49d3a05c4a641dec9311d9894c9717bcb79af76836040516101ec91815260200190565b60405180910390a25060085550565b60008061021260095430634357855e60e01b610502565b90506102546040518060400160405280600381526020016219d95d60ea1b8152506040518060800160405280604981526020016110c060499139839190610527565b6102ba604051806040016040528060048152602001630e0c2e8d60e31b8152506040518060400160405280601881526020017f5241572c4554482c5553442c564f4c554d453234484f55520000000000000000815250836105279092919063ffffffff16565b60408051808201909152600581526474696d657360d81b6020820152670de0b6b3a7640000906102ec9083908361054a565b6102f882600a54610568565b9250505090565b6007546001600160a01b031633146103525760405162461bcd60e51b815260206004820152601660248201527526bab9ba10313290383937b837b9b2b21037bbb732b960511b604482015260640161016e565b600680546001600160a01b0319808216339081179093556007805490911690556040516001600160a01b03909116919082907f8be0079c531659141344cd1fd0a4f28419497f9722a3daafe3b4186f6b6457e090600090a350565b6103b561058b565b60006103c96002546001600160a01b031690565b6040516370a0823160e01b81523060048201529091506001600160a01b0382169063a9059cbb90339083906370a0823190602401602060405180830381865afa15801561041a573d6000803e3d6000fd5b505050506040513d601f19601f8201168201806040525081019061043e9190610e1b565b6040516001600160e01b031960e085901b1681526001600160a01b03909216600483015260248201526044016020604051808303816000875af1158015610489573d6000803e3d6000fd5b505050506040513d601f19601f820116820180604052508101906104ad9190610e34565b6104ee5760405162461bcd60e51b81526020600482015260126024820152712ab730b13632903a37903a3930b739b332b960711b604482015260640161016e565b50565b6104f961058b565b6104ee816105e0565b61050a610d8e565b610512610d8e565b61051e8186868661068a565b95945050505050565b608083015161053690836106d0565b608083015161054590826106d0565b505050565b608083015161055990836106d0565b608083015161054590826106e7565b600354600090610582906001600160a01b0316848461074b565b90505b92915050565b6006546001600160a01b031633146105de5760405162461bcd60e51b815260206004820152601660248201527527b7363c9031b0b63630b1363290313c9037bbb732b960511b604482015260640161016e565b565b336001600160a01b038216036106385760405162461bcd60e51b815260206004820152601760248201527f43616e6e6f74207472616e7366657220746f2073656c66000000000000000000604482015260640161016e565b600780546001600160a01b0319166001600160a01b03838116918217909255600654604051919216907fed8889f560326eb138920d842192f0eb3dd22b4f139c87a2c57538e05bae127890600090a350565b610692610d8e565b6106a285608001516101006107de565b50508284526001600160a01b03821660208501526001600160e01b031981166040850152835b949350505050565b6106dd8260038351610843565b6105458282610958565b67ffffffffffffffff1981121561070657610702828261097f565b5050565b67ffffffffffffffff8113156107205761070282826109c1565b600081126107345761070282600083610843565b61070282600161074684600019610e6c565b610843565b60045460009061075c816001610e93565b600455835160408086015160808701515191516000936320214ca360e11b936107949386938493923092918a91600191602401610eec565b60408051601f198184030181529190526020810180516001600160e01b03166001600160e01b03199093169290921790915290506107d4868386846109e4565b9695505050505050565b6040805180820190915260608152600060208201526107fe602083610f54565b156108265761080e602083610f54565b610819906020610f76565b6108239083610e93565b91505b506020828101829052604080518085526000815290920101905290565b60178167ffffffffffffffff161161086e576108688360e0600585901b168317610b42565b50505050565b60ff8167ffffffffffffffff16116108ac57610895836018611fe0600586901b1617610b42565b506108688367ffffffffffffffff83166001610b67565b61ffff8167ffffffffffffffff16116108eb576108d4836019611fe0600586901b1617610b42565b506108688367ffffffffffffffff83166002610b67565b63ffffffff8167ffffffffffffffff161161092c5761091583601a611fe0600586901b1617610b42565b506108688367ffffffffffffffff83166004610b67565b61094183601b611fe0600586901b1617610b42565b506108688367ffffffffffffffff83166008610b67565b60408051808201909152606081526000602082015261058283846000015151848551610b8d565b61098a8260c3610b42565b506107028261099b83600019610e6c565b6040516020016109ad91815260200190565b604051602081830303815290604052610c77565b6109cc8260c2610b42565b5061070282826040516020016109ad91815260200190565b6040516bffffffffffffffffffffffff193060601b1660208201526034810184905260009060540160408051808303601f1901815282825280516020918201206000818152600590925291812080546001600160a01b0319166001600160a01b038a1617905590925082917fb5e6e01e79f91267dc17b4e6314d5d4d03593d2ceee0fbb452b750bd70ea5af99190a2600254604051630200057560e51b81526001600160a01b0390911690634000aea090610aa790889087908790600401610f89565b6020604051808303816000875af1158015610ac6573d6000803e3d6000fd5b505050506040513d601f19601f82011682018060405250810190610aea9190610e34565b6106c85760405162461bcd60e51b815260206004820152602360248201527f756e61626c6520746f207472616e73666572416e6443616c6c20746f206f7261604482015262636c6560e81b606482015260840161016e565b6040805180820190915260608152600060208201526105828384600001515184610c84565b6040805180820190915260608152600060208201526106c8848560000151518585610cdf565b6040805180820190915260608152600060208201528251821115610bb057600080fd5b6020850151610bbf8386610e93565b1115610bf257610bf285610be287602001518786610bdd9190610e93565b610d60565b610bed906002610fb0565b610d77565b600080865180518760208301019350808887011115610c115787860182525b505050602084015b60208410610c515780518252610c30602083610e93565b9150610c3d602082610e93565b9050610c4a602085610f76565b9350610c19565b51815160001960208690036101000a019081169019919091161790525083949350505050565b6106dd8260028351610843565b60408051808201909152606081526000602082015283602001518310610cb957610cb98485602001516002610bed9190610fb0565b8351805160208583010184815350808503610cd5576001810182525b5093949350505050565b6040805180820190915260608152600060208201526020850151610d038584610e93565b1115610d1757610d1785610be28685610e93565b60006001610d27846101006110b3565b610d319190610f76565b9050855183868201018583198251161781525080518487011115610d555783860181525b509495945050505050565b600081831115610d71575081610585565b50919050565b8151610d8383836107de565b506108688382610958565b6040805160a0810182526000808252602080830182905282840182905260608084018390528451808601909552845283015290608082015290565b60008060408385031215610ddc57600080fd5b50508035926020909101359150565b600060208284031215610dfd57600080fd5b81356001600160a01b0381168114610e1457600080fd5b9392505050565b600060208284031215610e2d57600080fd5b5051919050565b600060208284031215610e4657600080fd5b81518015158114610e1457600080fd5b634e487b7160e01b600052601160045260246000fd5b8181036000831280158383131683831282161715610e8c57610e8c610e56565b5092915050565b8082018082111561058557610585610e56565b6000815180845260005b81811015610ecc57602081850181015186830182015201610eb0565b506000602082860101526020601f19601f83011685010191505092915050565b6001600160a01b0389811682526020820189905260408201889052861660608201526001600160e01b03198516608082015260a0810184905260c0810183905261010060e08201819052600090610f4583820185610ea6565b9b9a5050505050505050505050565b600082610f7157634e487b7160e01b600052601260045260246000fd5b500690565b8181038181111561058557610585610e56565b60018060a01b038416815282602082015260606040820152600061051e6060830184610ea6565b6000816000190483118215151615610fca57610fca610e56565b500290565b600181815b8085111561100a578160001904821115610ff057610ff0610e56565b80851615610ffd57918102915b93841c9390800290610fd4565b509250929050565b60008261102157506001610585565b8161102e57506000610585565b8160018114611044576002811461104e5761106a565b6001915050610585565b60ff84111561105f5761105f610e56565b50506001821b610585565b5060208310610133831016604e8410600b841016171561108d575081810a610585565b6110978383610fcf565b80600019048211156110ab576110ab610e56565b029392505050565b6000610582838361101256fe68747470733a2f2f6d696e2d6170692e63727970746f636f6d706172652e636f6d2f646174612f70726963656d756c746966756c6c3f6673796d733d455448267473796d733d555344a264697066735822122011a6bbf769d3f2a9099f8862fabe8d6ccfc32d399d017c61d49bf6db2766282064736f6c63430008100033",
    "sourcePath": "c:/Users/yanni/Documents/Formation Alyra/Chainlink/contracts/APIConsumer.sol",
    "compiler": {
        "name": "solc",
        "version": "0.8.16+commit.07a7930e"
    },
    "functionHashes": {
        "acceptOwnership()": "79ba5097",
        "fulfill(bytes32,uint256)": "4357855e",
        "owner()": "8da5cb5b",
        "requestVolumeData()": "6021abac",
        "transferOwnership(address)": "f2fde38b",
        "volume()": "c618a1e4",
        "withdrawLink()": "8dc654a2"
    },
    "gasEstimates": {
        "creation": {
            "codeDepositCost": "882800",
            "executionCost": "infinite",
            "totalCost": "infinite"
        },
        "external": {
            "acceptOwnership()": "52353",
            "fulfill(bytes32,uint256)": "51453",
            "owner()": "2301",
            "requestVolumeData()": "infinite",
            "transferOwnership(address)": "30467",
            "volume()": "2328",
            "withdrawLink()": "infinite"
        }
    }
}