{
  "contractName": "APIConsumer",
  "abi": [
    {
      "inputs": [],
      "stateMutability": "nonpayable",
      "type": "constructor"
    },
    {
      "anonymous": false,
      "inputs": [
        {
          "indexed": true,
          "internalType": "bytes32",
          "name": "id",
          "type": "bytes32"
        }
      ],
      "name": "ChainlinkCancelled",
      "type": "event"
    },
    {
      "anonymous": false,
      "inputs": [
        {
          "indexed": true,
          "internalType": "bytes32",
          "name": "id",
          "type": "bytes32"
        }
      ],
      "name": "ChainlinkFulfilled",
      "type": "event"
    },
    {
      "anonymous": false,
      "inputs": [
        {
          "indexed": true,
          "internalType": "bytes32",
          "name": "id",
          "type": "bytes32"
        }
      ],
      "name": "ChainlinkRequested",
      "type": "event"
    },
    {
      "anonymous": false,
      "inputs": [
        {
          "indexed": true,
          "internalType": "address",
          "name": "from",
          "type": "address"
        },
        {
          "indexed": true,
          "internalType": "address",
          "name": "to",
          "type": "address"
        }
      ],
      "name": "OwnershipTransferRequested",
      "type": "event"
    },
    {
      "anonymous": false,
      "inputs": [
        {
          "indexed": true,
          "internalType": "address",
          "name": "from",
          "type": "address"
        },
        {
          "indexed": true,
          "internalType": "address",
          "name": "to",
          "type": "address"
        }
      ],
      "name": "OwnershipTransferred",
      "type": "event"
    },
    {
      "anonymous": false,
      "inputs": [
        {
          "indexed": true,
          "internalType": "bytes32",
          "name": "requestId",
          "type": "bytes32"
        },
        {
          "indexed": false,
          "internalType": "uint256",
          "name": "volume",
          "type": "uint256"
        }
      ],
      "name": "RequestVolume",
      "type": "event"
    },
    {
      "inputs": [],
      "name": "acceptOwnership",
      "outputs": [],
      "stateMutability": "nonpayable",
      "type": "function"
    },
    {
      "inputs": [],
      "name": "owner",
      "outputs": [
        {
          "internalType": "address",
          "name": "",
          "type": "address"
        }
      ],
      "stateMutability": "view",
      "type": "function"
    },
    {
      "inputs": [
        {
          "internalType": "address",
          "name": "to",
          "type": "address"
        }
      ],
      "name": "transferOwnership",
      "outputs": [],
      "stateMutability": "nonpayable",
      "type": "function"
    },
    {
      "inputs": [],
      "name": "volume",
      "outputs": [
        {
          "internalType": "uint256",
          "name": "",
          "type": "uint256"
        }
      ],
      "stateMutability": "view",
      "type": "function"
    },
    {
      "inputs": [],
      "name": "requestVolumeData",
      "outputs": [
        {
          "internalType": "bytes32",
          "name": "requestId",
          "type": "bytes32"
        }
      ],
      "stateMutability": "nonpayable",
      "type": "function"
    },
    {
      "inputs": [
        {
          "internalType": "bytes32",
          "name": "_requestId",
          "type": "bytes32"
        },
        {
          "internalType": "uint256",
          "name": "_volume",
          "type": "uint256"
        }
      ],
      "name": "fulfill",
      "outputs": [],
      "stateMutability": "nonpayable",
      "type": "function"
    },
    {
      "inputs": [],
      "name": "withdrawLink",
      "outputs": [],
      "stateMutability": "nonpayable",
      "type": "function"
    }
  ],
  "bytecode": "0x608060405260016004553480156200001657600080fd5b50338060008073ffffffffffffffffffffffffffffffffffffffff168273ffffffffffffffffffffffffffffffffffffffff16036200008c576040517f08c379a00000000000000000000000000000000000000000000000000000000081526004016200008390620003d3565b60405180910390fd5b81600660006101000a81548173ffffffffffffffffffffffffffffffffffffffff021916908373ffffffffffffffffffffffffffffffffffffffff160217905550600073ffffffffffffffffffffffffffffffffffffffff168173ffffffffffffffffffffffffffffffffffffffff161462000114576200011381620001b960201b60201c565b5b5050506200013c7301be23585060835e02b77ef475b0cc51aa1e0709620002ea60201b60201c565b6200016173f3fbb7f3391f62c8fe53f89b41dfc8159ee9653f6200032e60201b60201c565b7f6361393833363663633733313439353762386330313263373266303561656562600981905550600a670de0b6b3a76400006001620001a191906200042e565b620001ad9190620004be565b600a8190555062000568565b3373ffffffffffffffffffffffffffffffffffffffff168173ffffffffffffffffffffffffffffffffffffffff16036200022a576040517f08c379a0000000000000000000000000000000000000000000000000000000008152600401620002219062000546565b60405180910390fd5b80600760006101000a81548173ffffffffffffffffffffffffffffffffffffffff021916908373ffffffffffffffffffffffffffffffffffffffff1602179055508073ffffffffffffffffffffffffffffffffffffffff16600660009054906101000a900473ffffffffffffffffffffffffffffffffffffffff1673ffffffffffffffffffffffffffffffffffffffff167fed8889f560326eb138920d842192f0eb3dd22b4f139c87a2c57538e05bae127860405160405180910390a350565b80600260006101000a81548173ffffffffffffffffffffffffffffffffffffffff021916908373ffffffffffffffffffffffffffffffffffffffff16021790555050565b80600360006101000a81548173ffffffffffffffffffffffffffffffffffffffff021916908373ffffffffffffffffffffffffffffffffffffffff16021790555050565b600082825260208201905092915050565b7f43616e6e6f7420736574206f776e657220746f207a65726f0000000000000000600082015250565b6000620003bb60188362000372565b9150620003c88262000383565b602082019050919050565b60006020820190508181036000830152620003ee81620003ac565b9050919050565b6000819050919050565b7f4e487b7100000000000000000000000000000000000000000000000000000000600052601160045260246000fd5b60006200043b82620003f5565b91506200044883620003f5565b9250817fffffffffffffffffffffffffffffffffffffffffffffffffffffffffffffffff0483118215151615620004845762000483620003ff565b5b828202905092915050565b7f4e487b7100000000000000000000000000000000000000000000000000000000600052601260045260246000fd5b6000620004cb82620003f5565b9150620004d883620003f5565b925082620004eb57620004ea6200048f565b5b828204905092915050565b7f43616e6e6f74207472616e7366657220746f2073656c66000000000000000000600082015250565b60006200052e60178362000372565b91506200053b82620004f6565b602082019050919050565b6000602082019050818103600083015262000561816200051f565b9050919050565b611eea80620005786000396000f3fe608060405234801561001057600080fd5b506004361061007d5760003560e01c80638da5cb5b1161005b5780638da5cb5b146100c65780638dc654a2146100e4578063c618a1e4146100ee578063f2fde38b1461010c5761007d565b80634357855e146100825780636021abac1461009e57806379ba5097146100bc575b600080fd5b61009c600480360381019061009791906113de565b610128565b005b6100a6610271565b6040516100b3919061142d565b60405180910390f35b6100c46103d5565b005b6100ce61056c565b6040516100db9190611489565b60405180910390f35b6100ec610596565b005b6100f66106e3565b60405161010391906114b3565b60405180910390f35b610126600480360381019061012191906114fa565b6106e9565b005b816005600082815260200190815260200160002060009054906101000a900473ffffffffffffffffffffffffffffffffffffffff1673ffffffffffffffffffffffffffffffffffffffff163373ffffffffffffffffffffffffffffffffffffffff16146101ca576040517f08c379a00000000000000000000000000000000000000000000000000000000081526004016101c1906115aa565b60405180910390fd5b6005600082815260200190815260200160002060006101000a81549073ffffffffffffffffffffffffffffffffffffffff0219169055807f7cc135e0cebb02c3480ae5d74d377283180a2601f8f644edf7987b009316c63a60405160405180910390a2827f673b38182859a514d734bdfcb49d3a05c4a641dec9311d9894c9717bcb79af768360405161025d91906114b3565b60405180910390a281600881905550505050565b60008061028860095430634357855e60e01b6106fd565b90506102ec6040518060400160405280600381526020017f6765740000000000000000000000000000000000000000000000000000000000815250604051806080016040528060498152602001611e6c604991398361072e9092919063ffffffff16565b61036b6040518060400160405280600481526020017f70617468000000000000000000000000000000000000000000000000000000008152506040518060400160405280601881526020017f5241572c4554482c5553442c564f4c554d453234484f555200000000000000008152508361072e9092919063ffffffff16565b6000670de0b6b3a764000090506103c26040518060400160405280600581526020017f74696d657300000000000000000000000000000000000000000000000000000081525082846107619092919063ffffffff16565b6103ce82600a54610794565b9250505090565b600760009054906101000a900473ffffffffffffffffffffffffffffffffffffffff1673ffffffffffffffffffffffffffffffffffffffff163373ffffffffffffffffffffffffffffffffffffffff1614610465576040517f08c379a000000000000000000000000000000000000000000000000000000000815260040161045c90611616565b60405180910390fd5b6000600660009054906101000a900473ffffffffffffffffffffffffffffffffffffffff16905033600660006101000a81548173ffffffffffffffffffffffffffffffffffffffff021916908373ffffffffffffffffffffffffffffffffffffffff1602179055506000600760006101000a81548173ffffffffffffffffffffffffffffffffffffffff021916908373ffffffffffffffffffffffffffffffffffffffff1602179055503373ffffffffffffffffffffffffffffffffffffffff168173ffffffffffffffffffffffffffffffffffffffff167f8be0079c531659141344cd1fd0a4f28419497f9722a3daafe3b4186f6b6457e060405160405180910390a350565b6000600660009054906101000a900473ffffffffffffffffffffffffffffffffffffffff16905090565b61059e6107cb565b60006105a861085d565b90508073ffffffffffffffffffffffffffffffffffffffff1663a9059cbb338373ffffffffffffffffffffffffffffffffffffffff166370a08231306040518263ffffffff1660e01b81526004016106009190611489565b602060405180830381865afa15801561061d573d6000803e3d6000fd5b505050506040513d601f19601f82011682018060405250810190610641919061164b565b6040518363ffffffff1660e01b815260040161065e929190611678565b6020604051808303816000875af115801561067d573d6000803e3d6000fd5b505050506040513d601f19601f820116820180604052508101906106a191906116d9565b6106e0576040517f08c379a00000000000000000000000000000000000000000000000000000000081526004016106d790611752565b60405180910390fd5b50565b60085481565b6106f16107cb565b6106fa81610887565b50565b6107056112e6565b61070d6112e6565b610724858585846109b5909392919063ffffffff16565b9150509392505050565b610745828460800151610a6590919063ffffffff16565b61075c818460800151610a6590919063ffffffff16565b505050565b610778828460800151610a6590919063ffffffff16565b61078f818460800151610a8a90919063ffffffff16565b505050565b60006107c3600360009054906101000a900473ffffffffffffffffffffffffffffffffffffffff168484610b37565b905092915050565b600660009054906101000a900473ffffffffffffffffffffffffffffffffffffffff1673ffffffffffffffffffffffffffffffffffffffff163373ffffffffffffffffffffffffffffffffffffffff161461085b576040517f08c379a0000000000000000000000000000000000000000000000000000000008152600401610852906117be565b60405180910390fd5b565b6000600260009054906101000a900473ffffffffffffffffffffffffffffffffffffffff16905090565b3373ffffffffffffffffffffffffffffffffffffffff168173ffffffffffffffffffffffffffffffffffffffff16036108f5576040517f08c379a00000000000000000000000000000000000000000000000000000000081526004016108ec9061182a565b60405180910390fd5b80600760006101000a81548173ffffffffffffffffffffffffffffffffffffffff021916908373ffffffffffffffffffffffffffffffffffffffff1602179055508073ffffffffffffffffffffffffffffffffffffffff16600660009054906101000a900473ffffffffffffffffffffffffffffffffffffffff1673ffffffffffffffffffffffffffffffffffffffff167fed8889f560326eb138920d842192f0eb3dd22b4f139c87a2c57538e05bae127860405160405180910390a350565b6109bd6112e6565b6109cd8560800151610100610c03565b508385600001818152505082856020019073ffffffffffffffffffffffffffffffffffffffff16908173ffffffffffffffffffffffffffffffffffffffff16815250508185604001907bffffffffffffffffffffffffffffffffffffffffffffffffffffffff191690817bffffffffffffffffffffffffffffffffffffffffffffffffffffffff191681525050849050949350505050565b610a728260038351610c6d565b610a858183610df290919063ffffffff16565b505050565b7fffffffffffffffffffffffffffffffffffffffffffffffff0000000000000000811215610ac157610abc8282610e14565b610b33565b67ffffffffffffffff811315610ae057610adb8282610e8b565b610b32565b60008112610af957610af482600083610c6d565b610b31565b610b30826001837fffffffffffffffffffffffffffffffffffffffffffffffffffffffffffffffff610b2b9190611883565b610c6d565b5b5b5b5050565b6000806004549050600181610b4c91906118c6565b6004819055506000634042994660e01b60008087600001513089604001518760018c6080015160000151604051602401610b8d9897969594939291906119c5565b604051602081830303815290604052907bffffffffffffffffffffffffffffffffffffffffffffffffffffffff19166020820180517bffffffffffffffffffffffffffffffffffffffffffffffffffffffff83818316178352505050509050610bf886838684610ed7565b925050509392505050565b610c0b611353565b6000602083610c1a9190611a79565b14610c4657602082610c2c9190611a79565b6020610c389190611aaa565b82610c4391906118c6565b91505b81836020018181525050604051808452600081528281016020016040525082905092915050565b60178167ffffffffffffffff1611610ca457610c9e8160058460ff16901b60ff16178461106c90919063ffffffff16565b50610ded565b60ff8167ffffffffffffffff1611610cfa57610cd3601860058460ff16901b178461106c90919063ffffffff16565b50610cf48167ffffffffffffffff1660018561108c9092919063ffffffff16565b50610dec565b61ffff8167ffffffffffffffff1611610d5157610d2a601960058460ff16901b178461106c90919063ffffffff16565b50610d4b8167ffffffffffffffff1660028561108c9092919063ffffffff16565b50610deb565b63ffffffff8167ffffffffffffffff1611610daa57610d83601a60058460ff16901b178461106c90919063ffffffff16565b50610da48167ffffffffffffffff1660048561108c9092919063ffffffff16565b50610dea565b610dc7601b60058460ff16901b178461106c90919063ffffffff16565b50610de88167ffffffffffffffff1660088561108c9092919063ffffffff16565b505b5b5b5b505050565b610dfa611353565b610e0c838460000151518485516110ae565b905092915050565b610e3260036005600660ff16901b178361106c90919063ffffffff16565b50610e8782827fffffffffffffffffffffffffffffffffffffffffffffffffffffffffffffffff610e639190611883565b604051602001610e7391906114b3565b60405160208183030381529060405261119d565b5050565b610ea960026005600660ff16901b178361106c90919063ffffffff16565b50610ed38282604051602001610ebf91906114b3565b60405160208183030381529060405261119d565b5050565b60003084604051602001610eec929190611b97565b604051602081830303815290604052805190602001209050846005600083815260200190815260200160002060006101000a81548173ffffffffffffffffffffffffffffffffffffffff021916908373ffffffffffffffffffffffffffffffffffffffff160217905550807fb5e6e01e79f91267dc17b4e6314d5d4d03593d2ceee0fbb452b750bd70ea5af960405160405180910390a2600260009054906101000a900473ffffffffffffffffffffffffffffffffffffffff1673ffffffffffffffffffffffffffffffffffffffff16634000aea08685856040518463ffffffff1660e01b8152600401610fe293929190611bc3565b6020604051808303816000875af1158015611001573d6000803e3d6000fd5b505050506040513d601f19601f8201168201806040525081019061102591906116d9565b611064576040517f08c379a000000000000000000000000000000000000000000000000000000000815260040161105b90611c73565b60405180910390fd5b949350505050565b611074611353565b61108483846000015151846111c2565b905092915050565b611094611353565b6110a5848560000151518585611218565b90509392505050565b6110b6611353565b82518211156110c457600080fd5b846020015182856110d591906118c6565b111561110a576111098560026110fa886020015188876110f591906118c6565b6112a6565b6111049190611c93565b6112c2565b5b6000808651805187602083010193508088870111156111295787860182525b60208701925050505b60208410611170578051825260208261114b91906118c6565b915060208161115a91906118c6565b90506020846111699190611aaa565b9350611132565b60006001856020036101000a03905080198251168184511681811785525050508692505050949350505050565b6111aa8260028351610c6d565b6111bd8183610df290919063ffffffff16565b505050565b6111ca611353565b836020015183106111f0576111ef84600286602001516111ea9190611c93565b6112c2565b5b8351805160208583010184815381860361120b576001820183525b5050508390509392505050565b611220611353565b8460200151848361123191906118c6565b111561125957611258856002868561124991906118c6565b6112539190611c93565b6112c2565b5b600060018361010061126b9190611e20565b6112759190611aaa565b905085518386820101858319825116178152815185880111156112985784870182525b505085915050949350505050565b6000818311156112b8578290506112bc565b8190505b92915050565b6000826000015190506112d58383610c03565b506112e08382610df2565b50505050565b6040518060a0016040528060008019168152602001600073ffffffffffffffffffffffffffffffffffffffff16815260200160007bffffffffffffffffffffffffffffffffffffffffffffffffffffffff191681526020016000815260200161134d611353565b81525090565b604051806040016040528060608152602001600081525090565b600080fd5b6000819050919050565b61138581611372565b811461139057600080fd5b50565b6000813590506113a28161137c565b92915050565b6000819050919050565b6113bb816113a8565b81146113c657600080fd5b50565b6000813590506113d8816113b2565b92915050565b600080604083850312156113f5576113f461136d565b5b600061140385828601611393565b9250506020611414858286016113c9565b9150509250929050565b61142781611372565b82525050565b6000602082019050611442600083018461141e565b92915050565b600073ffffffffffffffffffffffffffffffffffffffff82169050919050565b600061147382611448565b9050919050565b61148381611468565b82525050565b600060208201905061149e600083018461147a565b92915050565b6114ad816113a8565b82525050565b60006020820190506114c860008301846114a4565b92915050565b6114d781611468565b81146114e257600080fd5b50565b6000813590506114f4816114ce565b92915050565b6000602082840312156115105761150f61136d565b5b600061151e848285016114e5565b91505092915050565b600082825260208201905092915050565b7f536f75726365206d75737420626520746865206f7261636c65206f662074686560008201527f2072657175657374000000000000000000000000000000000000000000000000602082015250565b6000611594602883611527565b915061159f82611538565b604082019050919050565b600060208201905081810360008301526115c381611587565b9050919050565b7f4d7573742062652070726f706f736564206f776e657200000000000000000000600082015250565b6000611600601683611527565b915061160b826115ca565b602082019050919050565b6000602082019050818103600083015261162f816115f3565b9050919050565b600081519050611645816113b2565b92915050565b6000602082840312156116615761166061136d565b5b600061166f84828501611636565b91505092915050565b600060408201905061168d600083018561147a565b61169a60208301846114a4565b9392505050565b60008115159050919050565b6116b6816116a1565b81146116c157600080fd5b50565b6000815190506116d3816116ad565b92915050565b6000602082840312156116ef576116ee61136d565b5b60006116fd848285016116c4565b91505092915050565b7f556e61626c6520746f207472616e736665720000000000000000000000000000600082015250565b600061173c601283611527565b915061174782611706565b602082019050919050565b6000602082019050818103600083015261176b8161172f565b9050919050565b7f4f6e6c792063616c6c61626c65206279206f776e657200000000000000000000600082015250565b60006117a8601683611527565b91506117b382611772565b602082019050919050565b600060208201905081810360008301526117d78161179b565b9050919050565b7f43616e6e6f74207472616e7366657220746f2073656c66000000000000000000600082015250565b6000611814601783611527565b915061181f826117de565b602082019050919050565b6000602082019050818103600083015261184381611807565b9050919050565b6000819050919050565b7f4e487b7100000000000000000000000000000000000000000000000000000000600052601160045260246000fd5b600061188e8261184a565b91506118998361184a565b92508282039050818112600084121682821360008512151617156118c0576118bf611854565b5b92915050565b60006118d1826113a8565b91506118dc836113a8565b92508282019050808211156118f4576118f3611854565b5b92915050565b60007fffffffff0000000000000000000000000000000000000000000000000000000082169050919050565b61192f816118fa565b82525050565b600081519050919050565b600082825260208201905092915050565b60005b8381101561196f578082015181840152602081019050611954565b60008484015250505050565b6000601f19601f8301169050919050565b600061199782611935565b6119a18185611940565b93506119b1818560208601611951565b6119ba8161197b565b840191505092915050565b6000610100820190506119db600083018b61147a565b6119e8602083018a6114a4565b6119f5604083018961141e565b611a02606083018861147a565b611a0f6080830187611926565b611a1c60a08301866114a4565b611a2960c08301856114a4565b81810360e0830152611a3b818461198c565b90509998505050505050505050565b7f4e487b7100000000000000000000000000000000000000000000000000000000600052601260045260246000fd5b6000611a84826113a8565b9150611a8f836113a8565b925082611a9f57611a9e611a4a565b5b828206905092915050565b6000611ab5826113a8565b9150611ac0836113a8565b9250828203905081811115611ad857611ad7611854565b5b92915050565b6000819050919050565b6000611b03611afe611af984611448565b611ade565b611448565b9050919050565b6000611b1582611ae8565b9050919050565b6000611b2782611b0a565b9050919050565b60008160601b9050919050565b6000611b4682611b2e565b9050919050565b6000611b5882611b3b565b9050919050565b611b70611b6b82611b1c565b611b4d565b82525050565b6000819050919050565b611b91611b8c826113a8565b611b76565b82525050565b6000611ba38285611b5f565b601482019150611bb38284611b80565b6020820191508190509392505050565b6000606082019050611bd8600083018661147a565b611be560208301856114a4565b8181036040830152611bf7818461198c565b9050949350505050565b7f756e61626c6520746f207472616e73666572416e6443616c6c20746f206f726160008201527f636c650000000000000000000000000000000000000000000000000000000000602082015250565b6000611c5d602383611527565b9150611c6882611c01565b604082019050919050565b60006020820190508181036000830152611c8c81611c50565b9050919050565b6000611c9e826113a8565b9150611ca9836113a8565b9250817fffffffffffffffffffffffffffffffffffffffffffffffffffffffffffffffff0483118215151615611ce257611ce1611854565b5b828202905092915050565b60008160011c9050919050565b6000808291508390505b6001851115611d4457808604811115611d2057611d1f611854565b5b6001851615611d2f5780820291505b8081029050611d3d85611ced565b9450611d04565b94509492505050565b600082611d5d5760019050611e19565b81611d6b5760009050611e19565b8160018114611d815760028114611d8b57611dba565b6001915050611e19565b60ff841115611d9d57611d9c611854565b5b8360020a915084821115611db457611db3611854565b5b50611e19565b5060208310610133831016604e8410600b8410161715611def5782820a905083811115611dea57611de9611854565b5b611e19565b611dfc8484846001611cfa565b92509050818404811115611e1357611e12611854565b5b81810290505b9392505050565b6000611e2b826113a8565b9150611e36836113a8565b9250611e637fffffffffffffffffffffffffffffffffffffffffffffffffffffffffffffffff8484611d4d565b90509291505056fe68747470733a2f2f6d696e2d6170692e63727970746f636f6d706172652e636f6d2f646174612f70726963656d756c746966756c6c3f6673796d733d455448267473796d733d555344a26469706673582212202f42aa35bedb4b4eb834e3459bc6653efde544d73e90761eedbc7ca9e1ec2fcc64736f6c63430008100033",
  "immutableReferences": {},
  "source": "// SPDX-License-Identifier: MIT\r\npragma solidity 0.8.16;\r\n\r\nimport '@chainlink/contracts/src/v0.8/ChainlinkClient.sol';\r\nimport '@chainlink/contracts/src/v0.8/ConfirmedOwner.sol';\r\n\r\n/**\r\n * Request testnet LINK and ETH here: https://faucets.chain.link/\r\n * Find information on LINK Token Contracts and get the latest ETH and LINK faucets here: https://docs.chain.link/docs/link-token-contracts/\r\n */\r\n\r\n/**\r\n * THIS IS AN EXAMPLE CONTRACT WHICH USES HARDCODED VALUES FOR CLARITY.\r\n * THIS EXAMPLE USES UN-AUDITED CODE.\r\n * DO NOT USE THIS CODE IN PRODUCTION.\r\n */\r\n\r\ncontract APIConsumer is ChainlinkClient, ConfirmedOwner {\r\n    using Chainlink for Chainlink.Request;\r\n\r\n    uint256 public volume;\r\n    bytes32 private jobId;\r\n    uint256 private fee;\r\n\r\n    event RequestVolume(bytes32 indexed requestId, uint256 volume);\r\n\r\n    /**\r\n     * @notice Initialize the link token and target oracle\r\n     *\r\n     * Rinkeby Testnet details:\r\n     * Link Token: 0x01BE23585060835E02B77ef475b0Cc51aA1e0709\r\n     * Oracle: 0xf3FBB7f3391F62C8fe53f89B41dFC8159EE9653f (Chainlink DevRel)\r\n     * jobId: ca98366cc7314957b8c012c72f05aeeb\r\n     *\r\n     */\r\n    constructor() ConfirmedOwner(msg.sender) {\r\n        setChainlinkToken(0x01BE23585060835E02B77ef475b0Cc51aA1e0709);\r\n        setChainlinkOracle(0xf3FBB7f3391F62C8fe53f89B41dFC8159EE9653f);\r\n        jobId = 'ca98366cc7314957b8c012c72f05aeeb';\r\n        fee = (1 * LINK_DIVISIBILITY) / 10; // 0,1 * 10**18 (Varies by network and job)\r\n    }\r\n\r\n    /**\r\n     * Create a Chainlink request to retrieve API response, find the target\r\n     * data, then multiply by 1000000000000000000 (to remove decimal places from data).\r\n     */\r\n    function requestVolumeData() public returns (bytes32 requestId) {\r\n        Chainlink.Request memory req = buildChainlinkRequest(jobId, address(this), this.fulfill.selector);\r\n\r\n        // Set the URL to perform the GET request on\r\n        req.add('get', 'https://min-api.cryptocompare.com/data/pricemultifull?fsyms=ETH&tsyms=USD');\r\n\r\n        // Set the path to find the desired data in the API response, where the response format is:\r\n        // {\"RAW\":\r\n        //   {\"ETH\":\r\n        //    {\"USD\":\r\n        //     {\r\n        //      \"VOLUME24HOUR\": xxx.xxx,\r\n        //     }\r\n        //    }\r\n        //   }\r\n        //  }\r\n        // request.add(\"path\", \"RAW.ETH.USD.VOLUME24HOUR\"); // Chainlink nodes prior to 1.0.0 support this format\r\n        req.add('path', 'RAW,ETH,USD,VOLUME24HOUR'); // Chainlink nodes 1.0.0 and later support this format\r\n\r\n        // Multiply the result by 1000000000000000000 to remove decimals\r\n        int256 timesAmount = 10**18;\r\n        req.addInt('times', timesAmount);\r\n\r\n        // Sends the request\r\n        return sendChainlinkRequest(req, fee);\r\n    }\r\n\r\n    /**\r\n     * Receive the response in the form of uint256\r\n     */\r\n    function fulfill(bytes32 _requestId, uint256 _volume) public recordChainlinkFulfillment(_requestId) {\r\n        emit RequestVolume(_requestId, _volume);\r\n        volume = _volume;\r\n    }\r\n\r\n    /**\r\n     * Allow withdraw of Link tokens from the contract\r\n     */\r\n    function withdrawLink() public onlyOwner {\r\n        LinkTokenInterface link = LinkTokenInterface(chainlinkTokenAddress());\r\n        require(link.transfer(msg.sender, link.balanceOf(address(this))), 'Unable to transfer');\r\n    }\r\n}\r\n\r\n",
  "sourcePath": "C:\\Users\\yanni\\Documents\\Formation Alyra\\Chainlink\\contracts\\APIConsumer.sol",
  "compiler": {
    "name": "solc",
    "version": "0.8.16+commit.07a7930e.Emscripten.clang"
  },
  "schemaVersion": "3.4.4",
  "updatedAt": "2022-08-12T09:56:43.428Z",
  "devdoc": {
    "kind": "dev",
    "methods": {},
    "version": 1
  },
  "userdoc": {
    "kind": "user",
    "methods": {
      "acceptOwnership()": {
        "notice": "Allows an ownership transfer to be completed by the recipient."
      },
      "constructor": {
        "notice": "Initialize the link token and target oracle Rinkeby Testnet details: Link Token: 0x01BE23585060835E02B77ef475b0Cc51aA1e0709 Oracle: 0xf3FBB7f3391F62C8fe53f89B41dFC8159EE9653f (Chainlink DevRel) jobId: ca98366cc7314957b8c012c72f05aeeb"
      },
      "fulfill(bytes32,uint256)": {
        "notice": "Receive the response in the form of uint256"
      },
      "owner()": {
        "notice": "Get the current owner"
      },
      "requestVolumeData()": {
        "notice": "Create a Chainlink request to retrieve API response, find the target data, then multiply by 1000000000000000000 (to remove decimal places from data)."
      },
      "transferOwnership(address)": {
        "notice": "Allows an owner to begin transferring ownership to a new address, pending."
      },
      "withdrawLink()": {
        "notice": "Allow withdraw of Link tokens from the contract"
      }
    },
    "notice": "THIS IS AN EXAMPLE CONTRACT WHICH USES HARDCODED VALUES FOR CLARITY. THIS EXAMPLE USES UN-AUDITED CODE. DO NOT USE THIS CODE IN PRODUCTION.",
    "version": 1
  }
}